:020000040000FA
:100000008501860132309F0083161030860007304C
:10001000850083125D20061086100614061E172820
:100020001F08803903190C28861406100E28692031
:1000300063200614861069200610861086110615A6
:10004000061E59281F0840390319202886156920E3
:100050006920861176200611061486106920061084
:1000600086146920061486106920061086146920FB
:10007000061486106920061086146920061486105E
:10008000692006108614692006148610692006105F
:1000900086146920061486106920061086146920CB
:1000A000061486106920061086146920861006152D
:1000B00020286920061006110A288316E5309F00C3
:1000C0008312692008008316E3309F0083126920A1
:1000D0000800FA30A200C730A3000130A400A30B2F
:1000E0007228A40B6F28A20B6B2800346430A20086
:1000F000C730A3000130A400A30B7F28A40B7C28E9
:06010000A20B7828003478
:04010600003400348D
:02400E00183F59
:00000001FF
